{
  "_format": "hh-sol-artifact-1",
  "contractName": "Token",
  "sourceName": "contracts/Token.sol",
  "abi": [
    {
      "inputs": [
        {
          "internalType": "address",
          "name": "",
          "type": "address"
        },
        {
          "internalType": "address",
          "name": "",
          "type": "address"
        }
      ],
      "name": "allowance",
      "outputs": [
        {
          "internalType": "uint256",
          "name": "",
          "type": "uint256"
        }
      ],
      "stateMutability": "view",
      "type": "function"
    },
    {
      "inputs": [
        {
          "internalType": "address",
          "name": "spender",
          "type": "address"
        },
        {
          "internalType": "uint256",
          "name": "value",
          "type": "uint256"
        }
      ],
      "name": "approve",
      "outputs": [
        {
          "internalType": "bool",
          "name": "",
          "type": "bool"
        }
      ],
      "stateMutability": "nonpayable",
      "type": "function"
    },
    {
      "inputs": [
        {
          "internalType": "address",
          "name": "",
          "type": "address"
        }
      ],
      "name": "balanceOf",
      "outputs": [
        {
          "internalType": "uint256",
          "name": "",
          "type": "uint256"
        }
      ],
      "stateMutability": "view",
      "type": "function"
    },
    {
      "inputs": [
        {
          "internalType": "address payable",
          "name": "dest",
          "type": "address"
        }
      ],
      "name": "burn",
      "outputs": [],
      "stateMutability": "nonpayable",
      "type": "function"
    },
    {
      "inputs": [],
      "name": "decimals",
      "outputs": [
        {
          "internalType": "uint256",
          "name": "",
          "type": "uint256"
        }
      ],
      "stateMutability": "view",
      "type": "function"
    },
    {
      "inputs": [],
      "name": "getNumTokenHolders",
      "outputs": [
        {
          "internalType": "uint256",
          "name": "",
          "type": "uint256"
        }
      ],
      "stateMutability": "view",
      "type": "function"
    },
    {
      "inputs": [
        {
          "internalType": "uint256",
          "name": "index",
          "type": "uint256"
        }
      ],
      "name": "getTokenHolder",
      "outputs": [
        {
          "internalType": "address",
          "name": "",
          "type": "address"
        }
      ],
      "stateMutability": "view",
      "type": "function"
    },
    {
      "inputs": [
        {
          "internalType": "address",
          "name": "payee",
          "type": "address"
        }
      ],
      "name": "getWithdrawableDividend",
      "outputs": [
        {
          "internalType": "uint256",
          "name": "",
          "type": "uint256"
        }
      ],
      "stateMutability": "view",
      "type": "function"
    },
    {
      "inputs": [],
      "name": "mint",
      "outputs": [],
      "stateMutability": "payable",
      "type": "function"
    },
    {
      "inputs": [],
      "name": "name",
      "outputs": [
        {
          "internalType": "string",
          "name": "",
          "type": "string"
        }
      ],
      "stateMutability": "view",
      "type": "function"
    },
    {
      "inputs": [],
      "name": "recordDividend",
      "outputs": [],
      "stateMutability": "payable",
      "type": "function"
    },
    {
      "inputs": [],
      "name": "symbol",
      "outputs": [
        {
          "internalType": "string",
          "name": "",
          "type": "string"
        }
      ],
      "stateMutability": "view",
      "type": "function"
    },
    {
      "inputs": [],
      "name": "totalSupply",
      "outputs": [
        {
          "internalType": "uint256",
          "name": "",
          "type": "uint256"
        }
      ],
      "stateMutability": "view",
      "type": "function"
    },
    {
      "inputs": [
        {
          "internalType": "address",
          "name": "to",
          "type": "address"
        },
        {
          "internalType": "uint256",
          "name": "value",
          "type": "uint256"
        }
      ],
      "name": "transfer",
      "outputs": [
        {
          "internalType": "bool",
          "name": "",
          "type": "bool"
        }
      ],
      "stateMutability": "nonpayable",
      "type": "function"
    },
    {
      "inputs": [
        {
          "internalType": "address",
          "name": "from",
          "type": "address"
        },
        {
          "internalType": "address",
          "name": "to",
          "type": "address"
        },
        {
          "internalType": "uint256",
          "name": "value",
          "type": "uint256"
        }
      ],
      "name": "transferFrom",
      "outputs": [
        {
          "internalType": "bool",
          "name": "",
          "type": "bool"
        }
      ],
      "stateMutability": "nonpayable",
      "type": "function"
    },
    {
      "inputs": [
        {
          "internalType": "address payable",
          "name": "dest",
          "type": "address"
        }
      ],
      "name": "withdrawDividend",
      "outputs": [],
      "stateMutability": "nonpayable",
      "type": "function"
    }
  ],
  "bytecode": "0x601260015560c0604052600a6080819052692a32b9ba103a37b5b2b760b11b60a0908152610030916002919061006f565b5060408051808201909152600480825263151154d560e21b602090920191825261005c9160039161006f565b5034801561006957600080fd5b50610102565b828054600181600116156101000203166002900490600052602060002090601f016020900481019282601f106100b057805160ff19168380011785556100dd565b828001600101855582156100dd579182015b828111156100dd5782518255916020019190600101906100c2565b506100e99291506100ed565b5090565b5b808211156100e957600081556001016100ee565b610dec806101116000396000f3fe6080604052600436106100f35760003560e01c806389afcb441161008a578063a4138b9b11610059578063a4138b9b14610323578063a9059cbb14610356578063ca55954c1461038f578063dd62ed3e146103d5576100f3565b806389afcb441461029357806395d89b41146102c65780639c53c0ca146102db578063a0ced69d1461030e576100f3565b806323b872dd116100c657806323b872dd14610200578063313ce5671461024357806350ca75551461025857806370a0823114610260576100f3565b806306fdde03146100f8578063095ea7b3146101825780631249c58b146101cf57806318160ddd146101d9575b600080fd5b34801561010457600080fd5b5061010d610410565b6040805160208082528351818301528351919283929083019185019080838360005b8381101561014757818101518382015260200161012f565b50505050905090810190601f1680156101745780820380516001836020036101000a031916815260200191505b509250505060405180910390f35b34801561018e57600080fd5b506101bb600480360360408110156101a557600080fd5b506001600160a01b03813516906020013561049b565b604080519115158252519081900360200190f35b6101d76104ca565b005b3480156101e557600080fd5b506101ee61055d565b60408051918252519081900360200190f35b34801561020c57600080fd5b506101bb6004803603606081101561022357600080fd5b506001600160a01b03813581169160208101359091169060400135610563565b34801561024f57600080fd5b506101ee6105ca565b6101d76105d0565b34801561026c57600080fd5b506101ee6004803603602081101561028357600080fd5b50356001600160a01b0316610685565b34801561029f57600080fd5b506101d7600480360360208110156102b657600080fd5b50356001600160a01b0316610697565b3480156102d257600080fd5b5061010d610753565b3480156102e757600080fd5b506101d7600480360360208110156102fe57600080fd5b50356001600160a01b03166107ae565b34801561031a57600080fd5b506101ee61080b565b34801561032f57600080fd5b506101ee6004803603602081101561034657600080fd5b50356001600160a01b0316610811565b34801561036257600080fd5b506101bb6004803603604081101561037957600080fd5b506001600160a01b0381351690602001356108a3565b34801561039b57600080fd5b506103b9600480360360208110156103b257600080fd5b50356108b9565b604080516001600160a01b039092168252519081900360200190f35b3480156103e157600080fd5b506101ee600480360360408110156103f857600080fd5b506001600160a01b0381358116916020013516610901565b6002805460408051602060018416156101000260001901909316849004601f810184900484028201840190925281815292918301828280156104935780601f1061046857610100808354040283529160200191610493565b820191906000526020600020905b81548152906001019060200180831161047657829003601f168201915b505050505081565b3360009081526005602090815260408083206001600160a01b0386168452909152902081905560015b92915050565b6000341161050d576040805162461bcd60e51b815260206004820152600b60248201526a1b9bc8115512081cd95b9d60aa1b604482015290519081900360640190fd5b6105163361091e565b60005461052390346109d7565b60009081553381526004602052604090205461053f90346109d7565b3360008181526004602052604090209190915561055b90610a38565b565b60005481565b6001600160a01b03831660009081526005602090815260408083203384529091528120546105919083610ab3565b6001600160a01b03851660009081526005602090815260408083203384529091529020556105c0848484610af5565b5060019392505050565b60015481565b60003411610613576040805162461bcd60e51b815260206004820152600b60248201526a1b9bc8115512081cd95b9d60aa1b604482015290519081900360640190fd5b6000805411610655576040805162461bcd60e51b81526020600482015260096024820152686e6f20737570706c7960b81b604482015290519081900360640190fd5b6000546106809061066e34670de0b6b3a7640000610bb2565b8161067557fe5b6008549190046109d7565b600855565b60046020526000908152604090205481565b33600090815260046020526040902054806106e6576040805162461bcd60e51b815260206004820152600a6024820152696e6f2062616c616e636560b01b604482015290519081900360640190fd5b6106ef3361091e565b3360009081526004602052604081208190555461070c9082610ab3565b60005561071833610c0b565b6040516001600160a01b0383169082156108fc029083906000818181858888f1935050505015801561074e573d6000803e3d6000fd5b505050565b6003805460408051602060026001851615610100026000190190941693909304601f810184900484028201840190925281815292918301828280156104935780601f1061046857610100808354040283529160200191610493565b6107b73361091e565b336000908152600a6020526040812080549190558015610807576040516001600160a01b0383169082156108fc029083906000818181858888f1935050505015801561074e573d6000803e3d6000fd5b5050565b60065490565b6001600160a01b03811660009081526009602052604081205460085482916108399190610ab3565b6001600160a01b03841660009081526004602052604081205491925090670de0b6b3a76400009061086a9084610bb2565b8161087157fe5b6001600160a01b0386166000908152600a6020526040902054919004915061089990826109d7565b925050505b919050565b60006108b0338484610af5565b50600192915050565b60008115806108c9575060065482115b156108d65750600061089e565b600660018303815481106108e657fe5b6000918252602090912001546001600160a01b031692915050565b600560209081526000928352604080842090915290825290205481565b6001600160a01b03811660009081526009602052604081205460085461094391610ab3565b90508015610807576001600160a01b038216600090815260046020526040812054670de0b6b3a7640000906109789084610bb2565b8161097f57fe5b6001600160a01b0385166000908152600a602052604090205491900491506109a790826109d7565b6001600160a01b0384166000908152600a6020908152604080832093909355600854600990915291902055505050565b600082820183811015610a31576040805162461bcd60e51b815260206004820152601b60248201527f536166654d6174683a206164646974696f6e206f766572666c6f770000000000604482015290519081900360640190fd5b9392505050565b6001600160a01b038116600090815260076020526040902054610ab057600680546001810182557ff652222313e28459528d920b65115c16c04f3efc82aaedc97be59f3f377c0d3f0180546001600160a01b0319166001600160a01b0384169081179091559054600091825260076020526040909120555b50565b6000610a3183836040518060400160405280601e81526020017f536166654d6174683a207375627472616374696f6e206f766572666c6f770000815250610cfe565b610afe8361091e565b610b078261091e565b6001600160a01b038316600090815260046020526040902054610b2a9082610ab3565b6001600160a01b038085166000908152600460205260408082209390935590841681522054610b5990826109d7565b6001600160a01b038084166000908152600460205260408082209390935590851681522054610b8b57610b8b83610c0b565b6001600160a01b0382166000908152600460205260409020541561074e5761074e82610a38565b600082610bc1575060006104c4565b82820282848281610bce57fe5b0414610a315760405162461bcd60e51b8152600401808060200182810382526021815260200180610d966021913960400191505060405180910390fd5b6001600160a01b03811660009081526007602052604090205480610c2f5750610ab0565b600654818114610cb357600060066001830381548110610c4b57fe5b600091825260209091200154600680546001600160a01b03909216925082916000198601908110610c7857fe5b600091825260208083209190910180546001600160a01b0319166001600160a01b039485161790559290911681526007909152604090208290555b6006805480610cbe57fe5b60008281526020808220830160001990810180546001600160a01b03191690559092019092556001600160a01b0385168252600790526040812055505050565b60008184841115610d8d5760405162461bcd60e51b81526004018080602001828103825283818151815260200191508051906020019080838360005b83811015610d52578181015183820152602001610d3a565b50505050905090810190601f168015610d7f5780820380516001836020036101000a031916815260200191505b509250505060405180910390fd5b50505090039056fe536166654d6174683a206d756c7469706c69636174696f6e206f766572666c6f77a26469706673582212208cd9aed4b8e61683db023876ea9e44be321dae756214d21d5d4963365a188cb464736f6c63430007000033",
  "linkReferences": {},
  "deployedLinkReferences": {}
}